:100000000C945B000C94AF050C9483000C9483005B
:100010000C9483000C9483000C9483000C94830054
:100020000C9483000C9483000C9483000C94830044
:100030000C9483000C9483000C9483000C94830034
:100040000C9483000C9483000C9483000C94830024
:100050000C9483000C9483000C9483000C94830014
:100060000C9483000C9483000C9483000C94830004
:100070000C9483000C9483000C9483000C948300F4
:100080000C9483000C9483000C9483000C948300E4
:100090000C9483000C9483000C9483000C948300D4
:1000A0000C9483000C9483000C9483000C948300C4
:1000B0000C948300790611241FBECFEFD8E0DEBF79
:1000C000CDBF15E0A0E0B1E0E6E1F0E502C00590AB
:1000D0000D92A634B107D9F727E0A6E4B5E001C038
:1000E0001D92A831B207E1F710E0CBE5D0E004C0E3
:1000F0002197FE010E94AB24CA35D107C9F70E949F
:10010000B9050C9409280C9400005F985D985E98DE
:1001100008951092BC0094EA9093BC009091BC00AA
:1001200097FFFCCF9091B900987F983011F081E053
:1001300008958093BB0084E88093BC008091BC004C
:1001400087FFFCCF8091B900887F883111F080341F
:1001500071F780E008958093BB0084E88093BC0031
:100160008091BC0087FFFCCF9091B900987F81E01F
:10017000983209F480E0089584EC8093BC0080916B
:10018000BC0087FFFCCF8091BB00089584E9809379
:10019000BC000895EF92FF920F931F93CF93DF93CC
:1001A000CDB7DEB727970FB6F894DEBF0FBECDBF31
:1001B0008C017C018AEBE81A8EEFF80AD701ED91E9
:1001C000FC911197EF5BFE4F89E28083ED91FC91EA
:1001D0001197EE5BFE4F81E08083ED91FC91ED5B2A
:1001E000FE4F80E991E091838083C80101960E94CF
:1001F0003A0AF8018083811107C0D7018D919C9143
:100200000E94D50EF8018083D8018C9181110DC018
:10021000AE01495F5F4FBE016F5F7F4FF701808185
:1002200091810E945E10D8018C93F8018081811128
:100230000DC0AE014B5F5F4FBE016A5F7F4FD701BC
:100240008D919C910E94520BF8018083D8018C9172
:1002500081110AC041E060E070E0F7018081918186
:100260000E943F08D8018C93F801808181110AC057
:1002700041E061E070E0D7018D919C910E943F08C0
:10028000F8018083D8018C9181110AC041E063E0BC
:1002900070E0F701808191810E943F08D8018C9322
:1002A000F801808181110DC024ED38E040E050E07C
:1002B00063E070E0D7018D919C910E94B408F80131
:1002C000808381E0D8019C91911180E027960FB640
:1002D000F894DEBF0FBECDBFDF91CF911F910F917C
:1002E000FF90EF9008958EBD0DB407FEFDCF8EB543
:1002F0000895CF93DF93D82FC62F2A9882E00E94CB
:1003000073018D2F0E9473018C2F0E9473012A9A12
:10031000DF91CF910895CF93C82F2A9883E00E9450
:1003200073018C2F0E9473018FEF0E9473012A9A30
:10033000CF9108951F93CF93DF93182FD62FC42FFB
:100340002A9885E00E947301812F0E9473018D2FEE
:100350000E9473018C2F0E9473012A9ADF91CF9122
:100360001F9108952A980E9473018FEF0E947301D4
:100370002A9A0895CF93DF93EC012A9A229A2D9816
:100380002B982C98259A239A249852985A9A81E56A
:100390008CBD1DBC2A9880EC0E9473012A9A87ECC0
:1003A00090E00197F1F700C000002A9882E00E94D7
:1003B000730188E20E94730184E00E94730189E85E
:1003C0000E94730180E00E94730183E00E94730128
:1003D0002A9A8AE20E948B0181119EC060E08CE023
:1003E0000E94790160E08DE00E94790160E88FE071
:1003F0000E94790164E080E60E94790160E080E774
:100400000E94790160E080E00E94790168E081E06B
:100410000E9479016D2F82E00E9479016C2F83E0A8
:100420000E94790160E084E00E94790168E085E043
:100430000E9479016D2F86E00E9479016C2F87E080
:100440000E94790160E088E00E94790168E089E01B
:100450000E9479016D2F8AE00E9479016C2F8BE058
:100460000E94790160E080E10E94790168E081E109
:100470000E9479016D2F82E10E9479016C2F83E146
:100480000E94790160E084E10E94790168E085E1E1
:100490000E9479016D2F86E10E9479016C2F87E11E
:1004A0000E94790160E088E10E94790168E089E1B9
:1004B0000E9479016D2F8AE10E9479016C2F8BE1F6
:1004C0000E9479016FEF80E20E9479016FEF81E273
:1004D0000E9479016FEF82E20E9479016FEF83E25F
:1004E0000E9479016FEF84E20E9479016FEF85E24B
:1004F0000E9479016FEF86E20E9479016FEF87E237
:100500000E94790163E08BE20E94790160E08FE054
:100510000E94790181E001C080E0DF91CF910895D0
:10052000EF92FF920F931F93CF93DF931F92CDB75C
:10053000DEB78C0180EB0E94B20189839981892FFB
:10054000807496FD05C0998197FF5EC084E901C063
:1005500080E92A980E9473018FEF0E94730128E0BE
:10056000829FC0011124F801918380838FEF0E9444
:10057000730190E025E0959587952A95E1F7F801BC
:1005800020813181822B932B918380838FEF0E9476
:100590007301F801128283838FEF0E947301F801C7
:1005A00022813381282B338322838FEF0E947301B2
:1005B0008F70E82E982F990FF8018481817E892B06
:1005C0008483998193FB992790F9919590FB80F909
:1005D00084830B5F1F4FF12CFE1441F08FEF0E94BC
:1005E0007301F80181938F01F394F6CF2A9A8981E0
:1005F00040E086FF02C061E001C062E08CE20E9440
:100600009A01898187708F5F0F90DF91CF911F9141
:100610000F91FF90EF900895DF92EF92FF920F936A
:100620001F93CF93DF931F92CDB7DEB77C0180EA93
:100630000E94B2018983898182FF08C0898184FF79
:1006400007C0898186FD4DC014E003C010E001C0E1
:1006500012E02A98812F80640E947301F701808143
:10066000918123E0969587952A95E1F70E94730181
:10067000F70180818295880F807E0E94730180E05F
:100680000E94730180E00E947301F7018481082FAA
:1006900006950F7080FF05C0802F80640E94730153
:1006A00010C0802F0E947301F5E0EF0EF11CD12CD9
:1006B000D01639F0F70181917F010E947301D39424
:1006C000F7CF2A9AF2E0FA95F1F700C02A981111B3
:1006D00001C011E0812F80680E9473012A9A812F46
:1006E00001C080E00F90DF91CF911F910F91FF909B
:1006F000EF90DF9008958230910549F083309105A5
:1007000051F0019761F45D985E985F9A08955F9843
:100710005E985D9A08955F985D985E9A08950C942E
:10072000850001979C0140E050E060E271EA87E0BB
:1007300090E00E948C24832F99278093C5002093FA
:10074000C400E1ECF0E0808188698083E2ECF0E0B5
:1007500080818E60808308959091C00095FFFCCFCA
:100760008093C60008950E94AC0380E090E0089555
:10077000CF93DF93EC018991882319F00E94AC0399
:10078000FACFDF91CF910895EF92FF920F931F93CD
:10079000CF93DF93EC011C8116951F7089818F9395
:1007A00088818F938EEB93E09F938F930E94D22446
:1007B0008B818F938A818F938EEC93E09F938F939D
:1007C0000E94D2241F921F938EED93E09F938F93EC
:1007D0000E94D2248C81879588278795880F880B63
:1007E000282F082E000C330B3F938F938BEE93E052
:1007F0009F938F930E94D2248C812DB73EB7205FA8
:100800003F4F0FB6F8943EBF0FBE2DBF80FD27C0EF
:1008100088EF93E09F938F930E94D22425960F90A8
:100820000F9000E080E0E82E84E0F82E011769F0D8
:1008300089911F928F93FF92EF920E94D2240F5FB3
:100840000F900F900F900F90F1CF84E495E0DF911F
:10085000CF911F910F91FF90EF900C94E824DF91BE
:10086000CF911F910F91FF90EF900895CF93DF9359
:10087000CDB7DEB72D970FB6F894DEBF0FBECDBF54
:10088000AC0180910A0790910B079A8389831C829F
:100890001B829D81262F2F70220F907E922B9D838D
:1008A000DE011696FA01CF01841B950B8617970778
:1008B0001CF481918D93F7CFCE0101960E940C0319
:1008C000811111C088E094E00E94B803CE01019626
:1008D0000E94C40382E090E0909311078093100778
:1008E0008FEF9FEF02C080E090E02D960FB6F89456
:1008F000DEBF0FBECDBFDF91CF910895CF93DF93C1
:1009000000D0CDB7DEB791E099838A831F928F9391
:100910008CE294E09F938F930E94D22462E070E077
:10092000CE0101960E9436040F900F900F900F9009
:100930000F900F90DF91CF910895CF93DF9300D068
:1009400000D0CDB7DEB722E029839A838B836C83F6
:100950001F926F939F938F938EE394E09F938F9357
:100960000E94D22464E070E0CE0101960E94360419
:100970000F900F900F900F900F900F900F900F907F
:100980000F900F90DF91CF910895CF93DF93F99956
:10099000FECF80E090E00E94A927EC0180529640B3
:1009A000803E9940C0F4DF93CF938DE594E09F9310
:1009B0008F930E94D224CE01A0E0B0E080930A077A
:1009C00090930B07A0930C07B0930D070F900F9017
:1009D0000F900F9012C01F921F9286E08F9380E2BB
:1009E0008F9382E894E09F938F930E94D2240F907C
:1009F0000F900F900F900F900F9080910A07909199
:100A00000B070E94BA0181110DC086EB94E00E9491
:100A1000B80383E090E090931107809310070E9441
:100A20007E04FFCF88ED94E00E94B80380E28093BB
:100A3000B80040E069E286E595E00E94CA008111B5
:100A40000DC08CEE94E00E94B80384E090E0909397
:100A50001107809310070E947E04FFCFDF91CF9192
:100A600008951F93CF93DF93CDB7DEB760970FB68E
:100A7000F894DEBF0FBECDBFCE0101960E9490025A
:100A8000882309F462C08C818F938B818F938A8134
:100A90008F9389818F9386E095E09F938F930E9437
:100AA000D2240F900F900F900F900F900F9089818C
:100AB0009A81892B09F049C08B819C81009709F4A8
:100AC00044C0A0E0B0E040910A0750910B0760914C
:100AD0000C0770910D0784179507A607B707A9F5AE
:100AE0001D8116951F70CE0101960E94C4038E8150
:100AF0008330B1F0843031F580E395E00E94E82442
:100B00008091BB039091BC03A091BD038E879F870A
:100B1000A88B63E070E0CE010E960E94360415C0EB
:100B2000143070F06F817885762767277627F999DA
:100B3000FECF80E090E00E94AF270E94C50405C070
:100B400086E001C085E00E947E0460960FB6F894AE
:100B5000DEBF0FBECDBFDF91CF911F9108951F92D1
:100B60000F920FB60F9211240F900FBE0F901F908F
:100B70001895CF93DF93CDB7DEB769970FB6F8948A
:100B8000DEBF0FBECDBF83EB93E090934F05809304
:100B90004E05109251051092500582E08093490550
:100BA000109253051092520586E495E09093150734
:100BB00080931407569A559A579A81E090E00E94C4
:100BC0007B0380E895E20E9491032FEF84E39CE091
:100BD000215080409040E1F700C000000E94C50411
:100BE0002FEF84E39CE0215080409040E1F700C06B
:100BF000000001E010E08091100790911107039729
:100C0000029728F1BE016F5F7F4F80919C06909103
:100C10009D060E94060E898D8430A9F0E984FA842D
:100C2000C7014F97803E9F4170F460911007C70144
:100C30000E949D04F0920F07E0920E071092110798
:100C40001092100704C010931107009310078091B1
:100C50001007909111072091000130910101821736
:100C6000930719F08230910520F4209154052B3020
:100C700060F00E947E04809110079091110790937C
:100C8000010180930001109254058091100790910A
:100C90001107009719F482E090E00EC081309105B1
:100CA00019F483E090E008C0029721F48091550583
:100CB000833028F481E090E00E947B0302C00E9410
:100CC0008500809155058F5F853018F48093550518
:100CD00002C010925505809154058F5F8093540592
:100CE0000E9431058FE39CE90197F1F700C00000F5
:100CF00082CFE6E5F5E084EB91E0DF019C011D92F7
:100D000021503040E1F787E595E090939D06809370
:100D10009C068EE996E09093A6068093A50608951A
:100D2000CF93DF93EB01AB0169E00E9408238111AF
:100D300003C0988191709883DF91CF9108950C94AE
:100D4000881D0C94621DDF92EF92FF920F931F9308
:100D5000CF93DF931F92CDB7DEB77C01162FD42E31
:100D60001982AE014F5F5F4F61E00E940823082F98
:100D7000811150C0898191E0D9121AC0123091F0CE
:100D800038F4112361F0113069F5182F18622CC066
:100D9000133059F0143031F5182F106825C0182F72
:100DA000106122C0182F14601FC0182F10641CC0BF
:100DB000123091F038F4112361F0113099F4182FAA
:100DC000177D12C0133059F0143061F4182F1F77BB
:100DD0000BC0182F1F7E08C0182F1B7F05C0182FAF
:100DE0001F7B02C00CEF16C08117A1F0412F61E0FC
:100DF000C7010E94C322082F81110CC0F701E35ED6
:100E0000FE4F1083F7014289538964897589C701B0
:100E10000E949F06802F0F90DF91CF911F910F911D
:100E2000FF90EF90DF9008950F931F93CF93DF9380
:100E30001F92CDB7DEB78B011982AE014F5F5F4FB6
:100E400061E00E940823811116C0998194FB22273A
:100E500020F9F801208393FB222720F9228392FBBB
:100E6000222720F9218396FB222720F92383991F2B
:100E70009927991F94830F90DF91CF911F910F9124
:100E800008953F924F925F926F927F928F929F92BE
:100E9000AF92BF92CF92DF92EF92FF920F931F9388
:100EA000CF93DF9300D000D0CDB7DEB78A01AE017B
:100EB0004F5F5F4F0E94B11B382E811136C04980B1
:100EC0005A806B807C8088EE882E83E0982EA12C3F
:100ED000B12CC301B201A50194010E946A246901E9
:100EE0007A01A8EEB3E00E94C024A3019201261B60
:100EF000370B480B590BAFEFBFEF0E94C0246C506B
:100F00007E4F8F4F9F4FA50194010E946A24760166
:100F1000DD24CC24DA01C9018C0D9D1DAE1DBF1D41
:100F2000F80180839183A283B383832D0F900F9068
:100F30000F900F90DF91CF911F910F91FF90EF9045
:100F4000DF90CF90BF90AF909F908F907F906F90E9
:100F50005F904F903F900895CF92DF92EF92FF9273
:100F60001F93CF93DF9300D000D000D0CDB7DEB772
:100F70007C016B01AE014B5F5F4F68EF0E94142351
:100F8000182F811126C0AE014F5F5F4F64E0C7018B
:100F90000E942023182F81111CC02D813E81211514
:100FA000310569F040E050E069817A818B819C8154
:100FB0000E946A24F6012083318342835383F60121
:100FC00080819181A281B381F701868B978BA08F5D
:100FD000B18F812F26960FB6F894DEBF0FBECDBF1E
:100FE000DF91CF911F91FF90EF90DF90CF90089508
:100FF000FC01828DFB01808380E00895EF92FF92D7
:101000000F931F93CF93DF9300D0CDB7DEB77C0152
:101010008B01AE014F5F5F4F60E20E94142381118C
:1010200025C049815A814115510569F4F701458D63
:10103000568D678D70A1F80140835183628373835D
:10104000F701128E13C093E0440F551F9A95E1F7F4
:1010500060E070E0F8014083518362837383F7019D
:10106000458F568F678F70A391E0928F0F900F90EE
:10107000DF91CF911F910F91FF90EF900895FF9214
:101080000F931F93CF93DF938C01FB01F42E6630F7
:10109000710590F4442391F0DB01AA0FBB1FAA0F46
:1010A000BB1FA00FB11FD1964D915D916D917C91A9
:1010B000D49720E091E007C08CEF41C021E090E0A0
:1010C00040E050E0BA01EF01E330F10519F4F80116
:1010D00090A72CC0E430F10578F4E130F105C1F4BB
:1010E00089E076956795579547958A95D1F764E499
:1010F000C8010E94CF2209C0E430F10589F4220F13
:101100004EEF60E6C8010E94DB22811118C00EC0BC
:10111000329719F0F80195A309C0F80197A306C00A
:101120003597C1F72295207F4FEEEBCFC00FD11F2F
:10113000F11002C01DA202C081E08DA380E0DF910A
:10114000CF911F910F91FF9008956630710520F0A7
:10115000FA0110828CEF0895FC01E60FF71F85A1BC
:10116000FA01808380E00895CF92DF92EF92FF92A0
:101170000F931F93CF93DF938C01EB0169017A01E9
:10118000FC01E60FF71F85A181110CC0CC0FDD1FFC
:10119000CC0FDD1FC00FD11FC9AADAAAEBAAFCAA87
:1011A00080E03FC06230710541F180F42097F9F092
:1011B00061307105A9F5BA01A90199E076956795A5
:1011C000579547959A95D1F764E424C0633071052B
:1011D000D1F06630710520F5BA01A90189E0769554
:1011E0006795579547958A95D1F764E613C0F8013E
:1011F00021AB32AB43AB54ABC9CFF80121AF32AF17
:1012000043AF54AFC3CFF801FD96208331834283AF
:101210005383BCCFC8010E94CF22811102C0B6CF38
:101220008CEFDF91CF911F910F91FF90EF90DF90A6
:10123000CF900895EF92FF920F931F93CF93DF9378
:1012400000D0CDB7DEB78C017A0162307105A1F113
:1012500038F46115710559F06130710571F056C0AF
:101260006330710579F16630710598F14FC0FC016A
:1012700081A992A9A3A9B4A94BC0AE014F5F5F4F4A
:1012800064E40E941423811149C0998120E030E078
:10129000392F330FA90160E070E0232B51F5F801DD
:1012A00045A956A967A970ADF701408351836283B0
:1012B0007383F80116A232C0FC0181AD92ADA3ADDB
:1012C000B4AD26C0FC01FD9680819181A281B381DD
:1012D0001FC0AE014F5F5F4F64E60E94142381116F
:1012E0001DC0298180E090E0922F990FA0E0B0E02E
:1012F0000FC0F7014083518362837383F80145ABCC
:1013000056AB67AB70AF91E096A308C08CEF06C0F8
:10131000F70180839183A283B38380E00F900F90C5
:10132000DF91CF911F910F91FF90EF900895EF9271
:10133000FF920F931F93CF93DF931F92CDB7DEB72A
:101340008C017B01AE014F5F5F4F61E00E9408237B
:10135000811113C09981F801E35EFE4F908397FFDE
:1013600004C091E0F701908302C0F7011082F701F9
:101370009081F801E75BFF4F90830F90DF91CF9151
:101380001F910F91FF90EF9008958F929F92AF92CF
:10139000BF92CF92DF92EF92FF920F931F93CF9362
:1013A000DF938C01EB01FC01808988836A5F7F4FAA
:1013B000C8010E94AC07811150C01A86BE01635F4C
:1013C0007F4FC8010E94FE07811147C0BE016F5EBA
:1013D0007F4FC8010E94601081113FC06E01F1E291
:1013E000CF0ED11C480185E2880E911C5E01E5E11B
:1013F000AE0EB11CE12CF12CA601B701C8010E9470
:101400001A0981112AC0F40181914F01F5018193DC
:101410005F01FFEFEF1AFF0A84E0C80ED11CE6E07F
:10142000EE16F10449F7BE01675C7F4FC8010E94C8
:101430009709811112C0BE016E5F7F4FC801DF9115
:10144000CF911F910F91FF90EF90DF90CF90BF90C1
:10145000AF909F908F900C94531EDF91CF911F916E
:101460000F91FF90EF90DF90CF90BF90AF909F9043
:101470008F900895EF92FF920F931F93CF93DF9376
:10148000CDB7DEB7EC970FB6F894DEBF0FBECDBF79
:101490008C0121E04EEF69E80E94DB22811105C03A
:1014A00040E068E8C8010E94C322AE01455C5F4F7E
:1014B00060ECC8010E940823F801E152FF4F10823E
:1014C00088EE93E0E65AFF4F9183808380E991E0B4
:1014D00032969183808385E89BE6A1E0B0E0329666
:1014E00080839183A283B38384EA90E7A9E0B0E08C
:1014F000E557F10980839183A283B383F801158EA8
:10150000168E178E10A2BE016F5F7F4FC8010E941A
:10151000C509F82E81110BC019821A828AE3FE01D7
:101520003196D801509601900D928A95E1F784E6A4
:1015300090E0F801EF5DFE4F9183808384E893E0B3
:1015400032969183808384EF91E0329691838083F9
:1015500080E09AE033969183808381E07096808367
:1015600041E060E8C8010E94C322E82E41E06FEF2D
:10157000C8010E94C3228E29F82A40E060E0C80119
:101580000E94C322F82AAE01445C5F4F61E9C801A2
:101590000E940823F82A8CADF801E95DFE4F808394
:1015A00041E060E0C8010E94C322F82A40E06FEFEA
:1015B000C8010E94C322F82A40E060E8C8010E94E6
:1015C000C3228F29E12CF12C81115FC041E0B701CA
:1015D000C8010E943F08FFEFEF1AFF0A96E0E916E4
:1015E000F10491F7811151C0F80117A210A640E053
:1015F00064E070E0C8010E943F08811146C040E0ED
:1016000065E070E0C8010E943F0881113EC020E003
:1016100030E042E150E060E070E0C8010E94B408B0
:10162000811133C020E030E440E050E061E070E040
:10163000C8010E94B408811128C020E030E043E2D4
:1016400050E062E070E0C8010E94B40881111DC042
:1016500020E030E0A90163E070E0C8010E94B40816
:10166000811113C08FEFF801E35EFE4F80834FEFCF
:1016700061E0C8010E94C32291E0F801E15EFE4FE3
:101680009083811102C07B971082EC960FB6F8947C
:10169000DEBF0FBECDBFDF91CF911F910F91FF90A5
:1016A000EF90089521E00C94A8142F923F924F924E
:1016B0005F926F927F928F929F92AF92BF92CF92E2
:1016C000DF92EF92FF920F931F93CF93DF93CDB7EB
:1016D000DEB7AA970FB6F894DEBF0FBECDBF4C01A0
:1016E0005B010CE010E020E030E0AE01465E5F4FB1
:1016F00064E10E94AA228111FDC0D50156961C9278
:101700005697F50110821182128213826CA170E04B
:10171000762F66278DA1680F711D14961D921D925C
:101720001D921C921797E9A1F0E0FE2FEE27FF0F04
:101730002F01612C712C1C964D925D926D927C92C2
:101740001F978BA190E0982F8827990F8C0120E09C
:1017500030E050960D931D932D933C9353970C8D31
:1017600010E0102F00278D8D080F111D55961C932A
:101770000E9354973A8CD401A75CBE4F2D913C91A7
:1017800011975B972C90283EB3E03B0709F43FC0CC
:10179000629FC001639F900D729F900D11248C5029
:1017A0009E4F68EE73E00E945624D4015D968D91A1
:1017B0009D910D90BC91A02D8FA398A7A9A7BAA722
:1017C000D4015A962C91222311F1089F6001099FA0
:1017D000D00C189FD00C1124CD2CDD24E12CF12C41
:1017E0004C145D046E047F0429F4211013C060EED4
:1017F0007AE820C09F01DB010E94B124A30192017D
:101800002C193D094E095F090E946A24B901222062
:1018100089F002C068EB72E2CB01969587959695A8
:101820008795F501918780876295660F660F607CCA
:10183000678B07C0D50119967C936E9318975796BE
:101840001C92FE01B6966F017501A3019201632DF2
:10185000C4010E940D2181114DC09EA1D501589651
:101860009C93BAE48B0E911C29E1F401DE011196E0
:1018700001900D922A95E1F7D5011896ED91FC9112
:10188000199757963C9057971A966D917C911B9794
:101890001C964D905D906D907C901F975096CD90CA
:1018A000DD90ED90FC90539754964D915C91559737
:1018B00014960D911D912D913C9117970D831E83C8
:1018C0002F833887FA87E9877C876B874D865E860A
:1018D0006F86788AC98ADA8AEB8AFC8A5E8B4D8B9E
:1018E000388E998F99E1FE013196D40101900D92C5
:1018F0009A95E1F7AA960FB6F894DEBF0FBECDBF5A
:10190000DF91CF911F910F91FF90EF90DF90CF90DB
:10191000BF90AF909F908F907F906F905F904F900F
:101920003F902F900895CF92DF92EF92FF920F9306
:101930001F93CF93DF9300D0CDB7DEB78C016A0140
:101940007901AE014F5F5F4F6EE00E941423F601F4
:10195000108211821282138281110CC0AE014F5F7E
:101960005F4F6CE0C8010E941423F70110821182BE
:10197000128213820F900F90DF91CF911F910F91E0
:10198000FF90EF90DF90CF900895EF92FF921F931A
:10199000CF93DF93CDB7DEB728970FB6F894DEBFAD
:1019A0000FBECDBF7C01FC01E253FF4F90819150EF
:1019B000933008F040C0162F9E012F5F3F4FAE01BD
:1019C0004B5F5F4F61E0C7010E94930C4D815E81C8
:1019D0006F817885413051056F4F710548F4498119
:1019E0005A816B817C81413051056F4F710520F127
:1019F000811122C0112331F062E071E0C7010E9421
:101A00003A1F1AC044E06FEFC7010E94C322182F8B
:101A100040E060E7C7010E94C322182B40E06FEF4F
:101A2000C7010E94C322182B40E060E8C7010E9452
:101A3000C322812B01C080E028960FB6F894DEBF48
:101A40000FBECDBFDF91CF911F91FF90EF90089512
:101A5000CF92DF92EF92FF920F931F93CF93DF937A
:101A60001F92CDB7DEB78C01FC01F08841E060E841
:101A70000E94C32241E06FEFC8010E94C32240E0F0
:101A800060E0C8010E94C322F801E95DFE4F408179
:101A900061E9C8010E94C32241E060E0C8010E94E0
:101AA000C32240E06FEFC8010E94C32240E060E81B
:101AB000C8010E94C322F1E0FF1689F1FF1620F051
:101AC00093E0F916A1F146C041E060E0C8010E9430
:101AD000C32291E09983811140C0C12CD12C7601A1
:101AE000EFEFCE1ADE0AEE0AFE0A998190FF10C0CF
:101AF00081110EC0F8ECCF16D104E104F10461F1BC
:101B0000AE014F5F5F4F60E0C8010E940823E8CF3D
:101B100098ECC916D104E104F104F9F41DC0811157
:101B200004C061E0C8010E94C50C42E007C08111F9
:101B300004C061E0C8010E94C50C44E060E0C80137
:101B40000E94C322811109C0F801E15EFE4F94E0BA
:101B5000908303C088EF01C089EF0F90DF91CF9190
:101B60001F910F91FF90EF90DF90CF9008951F93FA
:101B7000CF93DF93EC011889112331F0CE010E943D
:101B80000A17882331F00BC00E94280D811107C06D
:101B9000F5CF111104C0C15EDE4F93E09883DF9151
:101BA000CF911F910895EF92FF920F931F93CF93C0
:101BB000DF931F92CDB7DEB77C0100E041E06BE020
:101BC000C7010E94C322182F40E06BE0C7010E94AA
:101BD000C322182BAE014F5F5F4F63E1C7010E9424
:101BE0000823812B0F5F9981977029F0033029F02A
:101BF000882321F303C0033009F484EF0F90DF91B1
:101C0000CF911F910F91FF90EF9008950F931F9325
:101C1000CF93DF93EC018B01188A0E94B70D8111DD
:101C200010C0B801CE010E94550B81110AC040E0DE
:101C300050E0BA01CE01DF91CF911F910F910C942A
:101C4000D30DDF91CF911F910F910895EF92FF92E5
:101C50000F93CF93611180C0443161F4002311F0E0
:101C600041E001C040E164E8CF910F91FF90EF9017
:101C70000C94C322C22F7C01453109F05AC041E0C7
:101C80006FEF0E94C322C82F40E060E0C7010E94AE
:101C9000C322C82B40E06FEFC7010E94C322C82BAC
:101CA00041E060E8C7010E94C322C82B42E065E81A
:101CB000C7010E94C322C82B44E06FEFC7010E94F6
:101CC000C322C82B40E06DECC7010E94C322C82B81
:101CD00041E16CECC7010E94C322C82B47E06FEFC3
:101CE000C7010E94C322C82B40E06EEBC7010E94CF
:101CF000C322C82B46E06FEFC7010E94C322C82B46
:101D000049E06CECC7010E94C322C82B40E06FEF92
:101D1000C7010E94C322C82B41E06FEFC7010E9498
:101D2000C322C82B40E060E0C7010E94C3228C2B75
:101D300037C0223069F030F4222381F0213079F568
:101D400041E00DC0233031F0243049F544E007C0B4
:101D500042E005C043E003C086EF22C040E06AE0F5
:101D6000C7010E94C32281111BC0002311F020E192
:101D700001C020E04FEE64E8C7010E94DB22811120
:101D80000FC0F701E253FF4FC08340E050E0BA01BB
:101D9000C701CF910F91FF90EF900C94D30D85EF79
:101DA000CF910F91FF90EF900895CF92DF92EF9235
:101DB000FF920F931F93CF93DF93CDB7DEB7C75436
:101DC000D1090FB6F894DEBF0FBECDBF7C01CE01A6
:101DD00001966C018AE3F60111928A95E9F725963E
:101DE0001FAE1EAE259728961FAE289727961FAECA
:101DF000279723961CAE1DAE1EAE1FAE239761E043
:101E0000C7010E946C17F701ED5FFE4F2081223061
:101E100090F43197408150E060E070E0213031F47F
:101E2000413251056105710530F40FC04D30510547
:101E30006105710550F0AE014A5B5F4FBE01615C08
:101E40007F4FC7010E94D81403C0C7010E94BA1275
:101E50008111CAC0F701E85CFE4F8081811104C086
:101E600032976081718102C068EB72E0C7010E9405
:101E70003A1F8111B9C000E024E040E060E0C701F2
:101E80000E94260E8111B0C041E06FEFC7010E9491
:101E9000C322182FAE014D5B5F4F64E8C7010E945B
:101EA0001423182B40E06FEFC7010E94C322812B3F
:101EB00009F09AC0F701E853FF4F25968EAD9FAD0C
:101EC000259724E0880F991F2A95E1F7A0E0B0E05C
:101ED00080839183A283B383B601C7010E94C509A1
:101EE000811182C0BE01695B7F4FC7010E949006CD
:101EF00081117AC028968FAD2897F701E25EFE4FD8
:101F000080838AE3F601D701509601900D928A955D
:101F1000E1F7AE01495B5F4F61E0C7010E94082312
:101F2000811162C028968FAD2897F701E35EFE4FBE
:101F3000808340E060E0C7010E94A306811154C085
:101F400040E062E0C7010E94A30681114DC083E01A
:101F5000F701E15EFE4F8083AE014B5B5F4F60E0B7
:101F6000C7010E94621D81113FC026968FAD269742
:101F7000F701E852FF4F8083AE014B5B5F4F61E09A
:101F8000C7010E94621D81112FC026968FAD269732
:101F9000F701ED52FF4F8083AE01455C5F4F63E078
:101FA000C7010E94410781111FC08BAD9CADADAD33
:101FB000BEADF701EC52FF4F80839183A283B383C0
:101FC000AE01455C5F4F64E0C7010E94410781118B
:101FD0000BC0F701E153FF4F4BAD5CAD6DAD7EAD76
:101FE0004083518362837383C95BDF4F0FB6F894DC
:101FF000DEBF0FBECDBFDF91CF911F910F91FF903C
:10200000EF90DF90CF9008950F931F93CF93DF93BE
:102010001F92CDB7DEB78B01AE014F5F5F4F63E11B
:102020000E9408239981492F477050E060E070E0DA
:10203000F8014083518362837383987109F08AEFBA
:102040000F90DF91CF911F910F9108950F931F93E0
:10205000CF93DF9300D000D0CDB7DEB78B01FC016A
:10206000E253FF4F2081243079F4BE016F5F7F4F30
:102070000E94041049815A816B817C814430510552
:102080006105710581F40BC0AE014F5F5F4F64E1E4
:102090000E940823811109C0998190FF04C091E03A
:1020A000F801908302C0F80110820F900F900F90FA
:1020B0000F90DF91CF911F910F9108950C94D81438
:1020C0000F931F93CF93DF9300D0CDB7DEB78B0173
:1020D000AE014F5F5F4F68E20E941423811117C069
:1020E00029813A813F70211598E0390708F0305175
:1020F0009AEF929FA001939F500D1124052E000C82
:10210000660B770BF80140835183628373830F90D2
:102110000F90DF91CF911F910F9108953F924F92B1
:102120005F926F927F928F929F92AF92BF92CF9267
:10213000DF92EF92FF920F931F93CF93DF93CDB770
:10214000DEB728970FB6F894DEBF0FBECDBF9E83D3
:102150008D83F886EF82CC24CA94DC2C7601AF8183
:10216000B885CD92DD92ED92FC921397280139014A
:1021700093E076946794579447949A95D1F7D90150
:10218000C80187709927AA27BB2789839A83AB83C5
:10219000BC835301420123E0880C991CAA1CBB1C80
:1021A0002A95D1F773016201312CC416D506E606D3
:1021B000F70608F040C031103EC0ED81FE81EC0D05
:1021C000FD1D8081C414D504E604F70461F490E099
:1021D000098002C0959587950A94E2F709811A81D2
:1021E0002B813C8103C000E010E0980180FF0EC00D
:1021F000080D191D2A1D3B1DAF81B8850D931D9338
:102200002D933C931397332433940AC086950F5F24
:102210001F4F2F4F3F4F083011052105310531F772
:10222000BFEFCB1ADB0AEB0AFB0AE8E08E0E911C2B
:10223000A11CB11CBACF28960FB6F894DEBF0FBE12
:10224000CDBFDF91CF911F910F91FF90EF90DF9065
:10225000CF90BF90AF909F908F907F906F905F9046
:102260004F903F900895DC01CB0126E0B695A795ED
:10227000979587952A95D1F7BC01660F771F660F52
:10228000771FFB01E555FC4F81E040815181628160
:102290007381452B462B472B09F480E00895CF929C
:1022A000DF92EF92FF920F931F9368017901E3E0B1
:1022B000F694E794D794C794EA95D1F7077011275D
:1022C00022273327C416D506E606F70670F4FC016C
:1022D000EC0DFD1D81E090E001C0880F0A95EAF742
:1022E0009081892B808380E001C08EEC1F910F913B
:1022F000FF90EF90DF90CF9008950F931F93AB0165
:1023000006E010E020E030E060EB0E9491221F9197
:102310000F9108950F931F93AB0106E010E020E0AA
:1023200030E060EB0E94AA221F910F9108952F9236
:102330003F924F925F926F927F929F92AF92BF9225
:10234000CF92DF92EF92FF920F931F93CF93DF9381
:10235000CDB7DEB766970FB6F894DEBF0FBECDBF20
:102360009C8B8B8B962E5E8B4D8B39011701280130
:102370002AA53BA54CA55DA52F83388749875A8799
:102380001F86188A198A1A8A8F859889A989BA8915
:102390002EA53FA548A959A982179307A407B507F9
:1023A00009F447C0AE01495F5F4F7A010AA51BA53A
:1023B0002CA53DA5B201A1018D899E890E948E1098
:1023C0008F819885A985BA858B879C87AD87BE87C5
:1023D0008F3F2FEF9207A207B20769F1BC01CD0131
:1023E0006A0D7B1D8C1D9D1D0E943311891123C018
:1023F0000B851C852D853E85B201A101C3010E947C
:102400004F118B859C85AD85BE850196A11DB11DA3
:102410008AA79BA7ACA7BDA72F85388949895A8968
:102420002F5F3F4F4F4F5F4F2F87388B498B5A8B12
:10243000ABCF80E001C08EECEAA9FBA92AA53BA5A1
:102440004CA55DA52083318342835383811123C032
:10245000B3018B899C890E947D1181111CC0BE0132
:102460006F5F7F4F8B899C890E948A11D301FE0187
:10247000319640E050E0BA014215530564057505F8
:1024800051F02D919191291305C04F5F5F4F6F4F10
:102490007F4FF2CF8EEC66960FB6F894DEBF0FBE7C
:1024A000CDBFDF91CF911F910F91FF90EF90DF9003
:1024B000CF90BF90AF909F907F906F905F904F9024
:1024C0003F902F900895AF92BF92DF92EF92FF92CC
:1024D0000F931F93CF93DF93CDB7DEB769970FB6F6
:1024E000F894DEBF0FBECDBF8C015B017C0183EE93
:1024F000E81A8EEFF80AF701D08040EC61E0C801DD
:102500000E94C322811126C0BE016F5F7F4FC801A8
:102510000E94060E81111EC041E06FEFC8010E94AB
:10252000C322811117C0A50166EBC8010E941423C4
:10253000811110C040E06FEFC8010E94C3228111D9
:1025400009C04D2D61E0C8010E94C322811102C063
:10255000F701D08269960FB6F894DEBF0FBECDBFEB
:10256000DF91CF911F910F91FF90EF90DF90BF907F
:10257000AF9008954F925F926F927F928F929F9249
:10258000AF92BF92CF92DF92EF92FF920F931F9381
:10259000CF93DF9300D000D0CDB7DEB74C01642ECF
:1025A000152F062FB72E722E41E06FEF0E94C32227
:1025B00081111AC040E06FE4C4010E94C32281115E
:1025C00013C04CE26EE4C4010E94C32281110CC00E
:1025D00040E06FEFC4010E94C322811105C044EBAB
:1025E00066EBC4010E94C32224012FEE421A2EEF93
:1025F000520AF20110823196108231961082319681
:1026000010823196108231961082C12CD12C760125
:10261000772081F0C701B6016C547F4F8F4F9F4FD9
:102620000E943311811106C0FCE2CF16D104E104EF
:10263000F10479F5CE0101969F938F93BF920F938A
:102640001F936F92FF92EF92DF92CF9284EBA82EAE
:10265000B12CC12CD12C16E0E12EF12C00E010E0C1
:102660009201A401495E5E4F672DC4010E9497113B
:102670000FB6F894DEBF0FBECDBF811110C0F401BC
:10268000EC5FFE4F91E090833297608231967082CA
:1026900006C03FEFC31AD30AE30AF30ABBCF0F9079
:1026A0000F900F900F90DF91CF911F910F91FF909E
:1026B000EF90DF90CF90BF90AF909F908F907F90E2
:1026C0006F905F904F900895CF93DF93EC01462F6A
:1026D000416060E00E94C322811114C0CE010E94BB
:1026E0000A1781110FC040E050E0BA01CE010E94EC
:1026F000D30D811107C040E060E0CE01DF91CF91A2
:102700000C94C322DF91CF9108955F926F927F92D4
:102710008F929F92AF92BF92CF92DF92EF92FF92F1
:102720000F931F93CF93DF931F92CDB7DEB74C016A
:10273000562EB42ED22E3801198241E06FEF0E943E
:10274000C322182F40E060E0C4010E94C322182B6E
:1027500040E06FEFC4010E94C322182B552091F076
:10276000CC2031F0A3016BECC4010E940823182B8C
:10277000AA20C9F0AE014F5F5F4F6EEEC4010E9408
:10278000082310C0CC2031F04B2D6BECC4010E940B
:10279000C322182BAA2039F02D2D40E86EEEC4017B
:1027A0000E94DB22182B41E06FEFC4010E94C3227C
:1027B000182B41E060E0C4010E94C322182B40E0C6
:1027C0006FEFC4010E94C32299819F7EF70190831D
:1027D000812B0F90DF91CF911F910F91FF90EF9080
:1027E000DF90CF90BF90AF909F908F907F906F9031
:1027F0005F9008958F929F92AF92BF92CF92DF9297
:10280000EF92FF920F931F93CF93DF931F92CDB759
:10281000DEB74C018B01F42EB22E1982222329F04F
:10282000FC01E35EFE4FD08001C0D12C41E061E0AD
:10283000C4010E94C322811116C060E4C4010E9439
:102840006413811110C091E0F9120DC0A12CCC24A9
:10285000C394FE0131967F0120E040E061E0C401B5
:102860000E94851302C0F801108281110DC0BB20A7
:1028700059F04D2D61E0C4010E94C322811104C0B2
:10288000F401E35EFE4FD0820F90DF91CF911F9154
:102890000F91FF90EF90DF90CF90BF90AF909F90FF
:1028A0008F9008958F929F92AF92BF92CF92DF92B6
:1028B000EF92FF920F931F93CF93DF931F92CDB7A9
:1028C000DEB74C017B01142FB22E222329F0FC012C
:1028D000E35EFE4FD08001C0D12C42E061E0C40134
:1028E0000E94C322811115C060E0C4010E946413DC
:1028F00081110FC0113069F4AA24A394C12C8E0158
:102900000F5F1F4F20E040E061E0C4010E9485138B
:1029100002C0F701108281110DC0BB2059F04D2D6E
:1029200061E0C4010E94C322811104C0F401E35E8E
:10293000FE4FD0820F90DF91CF911F910F91FF90AA
:10294000EF90DF90CF90BF90AF909F908F900895C1
:10295000CF92DF92EF92FF920F931F93CF93DF936B
:10296000EC016A01E22E8C01035E1E4FF801F0803B
:1029700020E04E2D0E94FA13811111C020E04E2D4F
:10298000B601CE010E945214811109C04F2D61E0A1
:10299000CE010E94C322811102C0F801F082DF91B2
:1029A000CF911F910F91FF90EF90DF90CF900895FE
:1029B0002F923F924F925F926F927F928F929F924F
:1029C000AF92BF92CF92DF92EF92FF920F931F933D
:1029D000CF93DF93CDB7DEB7A8970FB6F894DEBFDD
:1029E0000FBECDBF4C017CA36BA35EA34DA31B8682
:1029F0001C861D861E861F82188619861A861A8ACC
:102A0000198AFC01E85DFE4F208131813C8B2B8BC4
:102A10001C013FEE231A3EEF330AD1011C922C0118
:102A2000BEEE4B1ABEEF5B0AF201108231961082A5
:102A300031961082319610823196108241E06FEF0C
:102A40000E94C3228111CDC140E06FE4C4010E9405
:102A5000C3228111C6C14CE26EE4C4010E94C322AC
:102A60008111BFC140E06FEFC4010E94C3228111F8
:102A7000B8C144EB66EBC4010E94C3228111B1C10D
:102A800040E060E8C4010E94C3228111AAC120E095
:102A9000AE014F5E5F4FBE016E5E7F4FC4010E946C
:102AA000A81481119EC11B861C861D861E8694015A
:102AB000295E3E4F3A8F298F3E013BE0630E711C29
:102AC0007F926F921F921F921F9283E08F931F92AB
:102AD0001F921F921F9244EBA42EB12CC12CD12C1B
:102AE00016E0E12EF12C00E010E09101498D5A8DA5
:102AF00060E0C4010E9497110FB6F894DEBF0FBECC
:102B0000CDBF81116EC1AB84BC84CD84DE84BE0197
:102B1000615F7F4FC4010E946312811162C18F8582
:102B20009889AB89BC89A817B90708F05FC0F10183
:102B30001082D2011C923296108231961082319608
:102B4000108231961082C601B5016C547F4F8F4FB1
:102B50009F4F0E94331181110CC0BCE2AB16B1042F
:102B6000C104D10430F4BFEFAB1ABB0ACB0ADB0AB5
:102B7000EACF7F926F921F921F921F9283E08F93F2
:102B8000DF92CF92BF92AF9284EBA82EB12CC12CD2
:102B9000D12C16E0E12EF12C00E010E09101498DDE
:102BA0005A8D61E0C4010E9497110FB6F894DEBF00
:102BB0000FBECDBF811115C1AB84BC84CD84DE8432
:102BC000BE01615F7F4FC4010E946312811109C180
:102BD0008F859889EB89FC89E817F90780F421E053
:102BE00033E0432E512C612C712C0DC020E0412C80
:102BF000512C32011D8A1E8A1F8A188E0CC020E0BB
:102C0000412C512C320181E090E0A0E0B0E08D8BAE
:102C10009E8BAF8BB88F8F859889AB89BC898A17BB
:102C20009B0708F0C4C026E0F101DE011196019077
:102C30000D922A95E1F7AB89BC898A1B9B0B97FF04
:102C400003C09195819591099C01990F440B550BF7
:102C50002F8F38A349A35AA383E090E0A0E0B0E00F
:102C60008B8F9C8FAD8FBE8FD401AF5EBE4FB8A748
:102C7000AFA3FE0137967F019601850146E050E043
:102C800060E070E0898D9A8D0E948E10CF80D8848C
:102C9000E984FA84FFEFCF16DF06EF06FF0609F49A
:102CA0009FC04B8C5C8C6D8C7E8C2FEF421A520A2D
:102CB000620A720AC701B6016C547F4F8F4F9F4F53
:102CC0000E94331190E0A0E0B0E02D893E894F8949
:102CD000588D82179307A407B50709F081C09701A3
:102CE000860146E050E060E070E0C1010E944F11B3
:102CF000811177C0560167013FEFA31AB30AC30AD7
:102D0000D30AB101C4010E947D1181116AC0BE01C4
:102D1000615F7F4FC4010E946312811162C08F8581
:102D20009889AC01AB89BC894A1B5B0B57FF03C078
:102D3000519541955109052E000C660B770BEB89D7
:102D4000FC89E817F90700F58F8D98A1A9A1BAA110
:102D500084179507A607B70748F5BE016F5F7F4F39
:102D6000C4010E947D1196E0FE013196D401AF5E50
:102D7000BE4F01900D929A95E1F7811132C04B8CB4
:102D80005C8C6D8C7E8C12C086E0EFA1F8A5DE0114
:102D9000119601900D928A95E1F74B8E5C8E6D8EA7
:102DA0007E8E4F8F58A369A37AA363CF2D89ABA1E1
:102DB000BCA14D925D926D927C921397EDA1FEA104
:102DC0002083F401EC5FFE4F81E0808332978C9189
:102DD0008083ADA1BEA18C913196808380E001C03B
:102DE0008EECA8960FB6F894DEBF0FBECDBFDF9174
:102DF000CF911F910F91FF90EF90DF90CF90BF90F8
:102E0000AF909F908F907F906F905F904F903F908A
:102E10002F900895EF92FF920F931F93CF93DF931C
:102E20001F92CDB7DEB77C01198200E010E0BE0131
:102E30006F5F7F4FC7010E94261081110DC09981DD
:102E4000913051F00F5F1F4F083C110521F0C70171
:102E50000E942C23ECCF89EF0F90DF91CF911F912F
:102E60000F91FF90EF900895CF92DF92EF92FF9233
:102E70001F93CF93DF931F92CDB7DEB77C0140E065
:102E800063E80E94C322182F811117C0C12CD12CD6
:102E9000AE014F5F5F4F63E8C7010E940823182F00
:102EA000898181110AC0111108C08FEFC81AD80A90
:102EB00088ECC816D10461F719EF41E063E8C70157
:102EC0000E94C322812B0F90DF91CF911F91FF9021
:102ED000EF90DF90CF9008952F923F924F925F92A4
:102EE0006F927F928F929F92AF92BF92CF92DF921A
:102EF000EF92FF920F931F93CF93DF93CDB7DEB77F
:102F0000AC970FB6F894DEBF0FBECDBF1E8E1F8EDE
:102F100018A219A21A8E1B8E1C8E1D8E9C01215286
:102F20003F4F3BA72AA7F901D080F7E0DF1609F44D
:102F3000C2C2E62E8C0141E060E80E94C322F82E56
:102F400041E06FEFC8010E94C322F82A40E060E030
:102F5000C8010E94C322F82A46E06FEFC8010E9410
:102F6000C322F82AAE01485D5F4F63E8C8010E94A2
:102F70000823F82A48A5446063E8C8010E94C322D8
:102F8000F82A47E06FEFC8010E94C322F82A41E007
:102F900061E8C8010E94C322F82AC8010E942C23BC
:102FA000F82A41E060E8C8010E94C322F82A2E2DC9
:102FB0002170222EE0FE57C0D0FC55C04BE664E9DC
:102FC000C8010E94C322C82EC8010E9434178C2950
:102FD000F82AAE014E5D5F4F60E9C8010E942023D0
:102FE000F82A8AA19BA1ACA1BDA1392F3F77332E2E
:102FF0004FE0B695A795979587954A95D1F7E82F15
:10300000E170CE2E44E264E9C8010E94C322F82A8E
:10301000C8010E943417F82AAE014E5D5F4F60E987
:10302000C8010E942023F82A8AA19BA12CA13DA1BE
:103030003C8B2D8B9E8B8F8B45E264E9C8010E94EF
:10304000C322F82AC8010E943417F82AAE014E5D47
:103050005F4F60E9C8010E942023F82A8CA19DA13E
:10306000988F898F02C0C12C312CFE2DF270F9A7E8
:10307000E1FE42C1D1FC40C142E064E9C8010E94C6
:10308000C322B82EC8010E9434178B29F82AAE013A
:10309000495D5F4F60E9C8010E940823F82A4BE7A9
:1030A00064E9C8010E94C322F82AC8010E943417AB
:1030B000F82AAE014A5D5F4F60E9C8010E9408230B
:1030C000F82A47E764E9C8010E94C322F82AC80128
:1030D0000E943417F82AAE014E5D5F4F60E9C801C7
:1030E0000E942023F82A8AA19BA1ACA1BDA1AC011A
:1030F000BD01E9E17695679557954795EA95D1F732
:103100004983AC01BD01F2E17695679557954795E6
:10311000FA95D1F74F774A83AC01BD012BE0769544
:103120006795579547952A95D1F74F774B83AC0113
:10313000BD0134E076956795579547953A95D1F757
:103140004F774C838F70880F880F880F88A748E7C8
:1031500064E9C8010E94C322F82AC8010E943417FA
:10316000F82AAE014E5D5F4F60E9C8010E9420233E
:10317000F82A8AA19BA1ACA1BDA1AC01BD01EDE1E2
:103180007695679557954795EA95D1F728A5420F0B
:103190004D83AC01BD01F6E176956795579547954E
:1031A000FA95D1F74F774E83AC01BD012FE07695AC
:1031B0006795579547952A95D1F74F774F83292FD4
:1031C0002F772887AC01BD01769567955795479570
:1031D0004F77498781708295880F880F807C88A7F8
:1031E00049E764E9C8010E94C322F82AC8010E9485
:1031F0003417F82AAE014E5D5F4F60E9C8010E94A6
:103200002023F82A8AA19BA1ACA1BDA1AC01BD01DC
:10321000EAE17695679557954795EA95D1F728A500
:10322000420F4A87AC01BD01F3E17695679557954A
:103230004795FA95D1F74F774B87AC01BD012CE04C
:1032400076956795579547952A95D1F74F774C878F
:10325000AC01BD0135E076956795579547953A9550
:10326000D1F74F774D878F71880F880F88A74AE76E
:1032700064E9C8010E94C322F82AC8010E943417D9
:10328000F82AAE014E5D5F4F60E9C8010E9420231D
:10329000F82A8AA19BA1ACA1BDA1AC01BD01EEE1C0
:1032A0007695679557954795EA95D1F728A5420FEA
:1032B0004E87AC01BD01F7E1769567955795479527
:1032C000FA95D1F74F774F872A2F2F77288BAC01AC
:1032D000BD0129E076956795579547952A95D1F7D1
:1032E0004F77498B32E0B695A795979587953A9594
:1032F000D1F78F778A8B1B8A2E2D24702CA7E2FEA4
:103300009EC0D2FC9CC04BE764E9C8010E94C32266
:10331000B82EC8010E9434178B29F82AAE01425EEC
:103320005F4F60E9C8010E942023F82A4CE764E956
:10333000C8010E94C322F82AC8010E943417F82A43
:10334000AE01465E5F4F60E9C8010E942023F82A63
:1033500043E764E9C8010E94C322F82AC8010E9419
:103360003417F82AAE014E5D5F4F60E9C8010E9434
:103370002023F82A8AA09BA0ACA0BDA0BA2CA92C1F
:10338000982C8824240135016624772444E764E9D5
:10339000C8010E94C322F82AC8010E943417F82AE3
:1033A000AE014E5D5F4F60E9C8010E942023F82AFC
:1033B0008AA09BA0ACA0BDA08B2C9924AA24BB24DE
:1033C00084289528A628B72845E764E9C8010E9403
:1033D000C322F82AC8010E943417F82AAE014E5DB4
:1033E0005F4F60E9C8010E942023F82A4AA05BA031
:1033F0006CA07DA0762C652C542C44246624772464
:1034000046E764E9C8010E94C322F82AC8010E9465
:103410003417F82AAE014E5D5F4F60E9C8010E9483
:103420002023F82A8AA19BA1ACA1BDA18B2F9927AB
:10343000AA27BB27482A592A6A2A7B2A06C0812C38
:10344000912C5401412C512C320140E061E8C8011B
:103450000E94C322F82A46E06FEFC8010E94C322EF
:10346000F82AAE01485D5F4F63E8C8010E94082357
:10347000F82A48A54B7F63E8C8010E94C322F82AB6
:1034800041E06FEFC8010E94C322F82A41E060E0EA
:10349000C8010E94C322F82A40E06FEFC8010E94D1
:1034A000C322F82A40E060E8C8010E94C322F82A3B
:1034B00009F07FC002C0F12C7CC0222011F0D0FEA8
:1034C00004C039A5311113C024C0F801EE5FFE4FCE
:1034D00030823196C082DE0154967496C801835EB4
:1034E0009E4F2D9121938E179F07D9F7EACFD1FCDC
:1034F00010C08FA1F801E052FF4F80838EA131965A
:103500008083BE016F5F7F4FC8018E519F4F0E9425
:10351000CB248CA5882309F448C0D2FC46C08E8DEC
:103520009F8DA8A1B9A1F801EB5FFE4F8083918325
:10353000A283B3838A8D9B8DAC8DBD8D34968083A1
:103540009183A283B383349639E0880C991CAA1C1A
:10355000BB1C3A95D1F780829182A282B38241143A
:10356000510461047104B1F0A30192013951410980
:103570005109A8EEB3E00E94C024DC01CB0124E095
:10358000B695A795979587952A95D1F791958195A9
:10359000910902C080E090E0092E000CAA0BBB0B41
:1035A000F80184879587A687B787ED28EAA5FBA54C
:1035B000E0828F2DAC960FB6F894DEBF0FBECDBF64
:1035C000DF91CF911F910F91FF90EF90DF90CF90FF
:1035D000BF90AF909F908F907F906F905F904F9033
:1035E0003F902F900895CF92DF92EF92FF92611556
:1035F000710581059105D1F0DC01CB010197A1098D
:10360000B10920E030E06C017D01CC24CD28CE282A
:10361000CF2839F0B695A795979587952F5F3F4F9F
:10362000F2CF322F2227820F931F02C080E090E05A
:10363000FF90EF90DF90CF9008958F929F92AF927E
:10364000BF92CF92DF92EF92FF924A015B01A22FCD
:10365000B0E020E03FE24AE350E00E94C0246B016A
:103660007C0124EFC20E21E0D21EE11CF11CA8EE69
:10367000B3E0A50194010E94C0244B015C01C70185
:10368000B60120ED37E040E050E00E946A24820E4F
:10369000931EA41EB51EC701B60128EE33E040E01C
:1036A00050E00E946A24C501B4010E946A24CA0144
:1036B000B901FF90EF90DF90CF90BF90AF909F90B7
:1036C0008F9008954F925F926F927F928F929F9208
:1036D000AF92BF92CF92DF92EF92FF923B01A42F65
:1036E000B0E020E03FE24AE350E00E94C0246B01DA
:1036F0007C0124EFC20E21E0D21EE11CF11C88EEF9
:10370000882E83E0982EA12CB12CC701B601A5010B
:1037100094010E946A24D3010E94C0242B013C0121
:10372000C701B60120ED37E040E050E00E946A2476
:10373000C301B201620F731F841F951FA50194017D
:103740000E946A24CA01B901FF90EF90DF90CF90E8
:10375000BF90AF909F908F907F906F905F904F90B1
:103760000895AF92BF92CF92DF92EF92FF921F9394
:10377000CF93DF93CDB7DEB72B970FB6F894DEBFAC
:103780000FBECDBF7C015A011A8619861886633098
:10379000B8F4AE01455F5F4F60E00E94A106182FAC
:1037A000811108C0AE01465F5F4F66E4C7010E9409
:1037B0000823182F6A85862F90E0A0E0B0E02BC088
:1037C000633081F5AE01455F5F4F60E00E94A10666
:1037D000182F811189C0AE01455F5F4F60E0C701BE
:1037E0000E94A106182F811108C0AE01485F5F4FEB
:1037F00061E5C7010E941423182F28853985B90176
:103800007727CB01A0E0B0E004C0880F991FAA1F62
:10381000BB1F3A95D2F7BC01CD016F5F7F4F8F4F31
:103820009F4F5DC0643009F063C0BE016F5F7F4F82
:103830000E9414078C81882331F1AE01455F5F4FF0
:1038400060E0C7010E94A106182F811141C0AE019E
:10385000485F5F4F61E5C7010E941423182F288538
:103860003985C9019927A0E0B0E004C0880F991FED
:10387000AA1FBB1F3A95D2F70196A11DB11D6C017D
:10388000111128C002C0C12CD12CAE01455F5F4F81
:1038900061E0C7010E94A106182F81111BC0AE0173
:1038A0004A5F5F4F61E7C7010E941423182F2E81E2
:1038B0003F81C9019927A0E0B0E004C0880F991F9B
:1038C000AA1FBB1F3A95D2F70196A11DB11D04C0D6
:1038D000C12CD12C80E090E0BC016C197D094B8596
:1038E000C7010E94621B08C060E070E0CB0104C009
:1038F00060E070E0CB0110E0F501608371838283AA
:103900009383812F2B960FB6F894DEBF0FBECDBFE9
:10391000DF91CF911F91FF90EF90DF90CF90BF90FC
:10392000AF9008958F929F92AF92BF92CF92DF9205
:10393000FF920F931F93CF93DF93CDB7DEB72897F6
:103940000FB6F894DEBF0FBECDBF8C0149015A01FE
:10395000633010F5AE01485F5F4F60E00E94A10642
:10396000F82E81119CC02885B501A401C8010E94D0
:103970001D1B4FEF613021E0720708F4460FF8017C
:10398000E453FF4F842F90E09183808366E4C80165
:103990000E94C322F82E83C0633031F5AE01485F28
:1039A0005F4F60E00E94A106F82E2885B501A401B2
:1039B000C8010E941D1B882799270E94F31A9F8324
:1039C0008E83F801E453FF4F91838083F11067C029
:1039D000AC0161E5C8010E94CF22F82E81115FC0C1
:1039E000F801EC52FF4F54C0643009F056C0BE01DC
:1039F0006F5F7F4F0E9414078C81882331F1AE01E5
:103A0000485F5F4F60E0C8010E94A106F82E811157
:103A100046C0AE014A5F5F4F61E5C8010E941423B2
:103A2000F82E81113CC02E813F81C9019927A0E069
:103A3000B0E004C0880F991FAA1FBB1F3A95D2F7A8
:103A40000196A11DB11D6C0102C0C12CD12CAE018B
:103A5000485F5F4F61E0C8010E94A106F82E811106
:103A60001EC02885B501A401C8010E941D1B6C0D54
:103A70007D1D80E090E00E94F31AAC0161E7C8016F
:103A80000E94CF22F82E81110AC0F801E153FF4FA6
:103A900080829182A282B38202C08CEFF82E8F2D99
:103AA00028960FB6F894DEBF0FBECDBFDF91CF9141
:103AB0001F910F91FF90DF90CF90BF90AF909F909C
:103AC0008F9008950F931F93CF93DF931F92CDB7DD
:103AD000DEB78A01662339F0613099F4AE014F5F99
:103AE0005F4F60E704C0AE014F5F5F4F60E50E942B
:103AF0000823811107C099819F5F990FF801908376
:103B000001C08CEF0F90DF91CF911F910F9108951D
:103B10008F929F92AF92BF92CF92DF92EF92FF92DD
:103B20000F931F93CF93DF93CDB7DEB72D970FB6CB
:103B3000F894DEBF0FBECDBF00ED17E020E030E00F
:103B40000A871B872C873D871E821F82188619864D
:103B500040322EE452076105710508F490C04A0115
:103B60005B018C01BE016F5F7F4F0E9414078111C2
:103B700087C07501640188EEC81A88E0D80AE10898
:103B8000F1088981811107C08A81811104C08B816C
:103B9000882309F442C0AE01465F5F4F62E0C8016E
:103BA0000E94B11B81116CC08981882391F08A85A4
:103BB0009B85AC85BD85825B9D4FAF4FBF4F8C15FC
:103BC0009D05AE05BF0508F05AC0C81AD90AEA0A11
:103BD000FB0A8B81882369F08A859B85AC85BD852E
:103BE0008E549D4FAF4FBF4F880F991FAA1FBB1F09
:103BF0000BC08A81882389F08A859B85AC85BD8529
:103C00008C569D4FAF4FBF4F8C159D05AE05BF0520
:103C1000B0F5C81AD90AEA0AFB0A8C818823D1F0C8
:103C2000AE014A5F5F4F63E0C8010E94B11B4E8145
:103C30005F81688579854C565D4F6F4F7F4F4C157E
:103C40005D056E057F05D8F481111AC0C41AD50A26
:103C5000E60AF70A8D81882381F0A7019601265292
:103C600032404109510964E0C8010E94921CF801E8
:103C7000828A938AA48AB58A03C080E001C08CEF4F
:103C80002D960FB6F894DEBF0FBECDBFDF91CF915A
:103C90001F910F91FF90EF90DF90CF90BF90AF906A
:103CA0009F908F9008958F929F92AF92BF92DF92D4
:103CB000EF92FF920F931F93CF93DF93CDB7DEB7B1
:103CC00061970FB6F894DEBF0FBECDBF7C018B01AC
:103CD00080ED97E0A0E0B0E08A879B87AC87BD8746
:103CE0001E821F821886198686E39BE0A0E0B0E062
:103CF000FB0180839183A283B383BE016F5F7F4FFB
:103D0000C7010E941407D82E8111A1C08981811199
:103D100007C08A81811104C08B81882309F449C0BE
:103D2000AE01465F5F4F62E0C7010E94B11B811187
:103D30008DC089818823A9F08A859B85AC85BD8546
:103D4000825B9D4FAF4FBF4FF8014081518162812F
:103D50007381840F951FA61FB71F80839183A28351
:103D6000B3838B81882369F08A859B85AC85BD856B
:103D70008E549D4FAF4FBF4F880F991FAA1FBB1F77
:103D80000BC08A818823A9F08A859B85AC85BD8577
:103D90008C569D4FAF4FBF4FF801408151816281DA
:103DA0007381840F951FA61FB71F80839183A28301
:103DB000B3838C818823F1F0AE014A5F5F4F63E0EB
:103DC000C7010E94B11B4E815F81688579854C5681
:103DD0005D4F6F4F7F4FF80180809180A280B3804C
:103DE000480D591D6A1D7B1D408351836283738377
:103DF00081112CC08D8181110BC0F80180819181CE
:103E0000A281B381F701828B938BA48BB58B1FC0EA
:103E1000AE01425F5F4F64E0C7010E94B11B4E8557
:103E20005F85688979894A5D5D4F6F4F7F4FF801E3
:103E300080809180A280B380480D591D6A1D7B1D32
:103E400040835183628373838823B9F2D82E8D2DEA
:103E500061960FB6F894DEBF0FBECDBFDF91CF9154
:103E60001F910F91FF90EF90DF90BF90AF909F90C8
:103E70008F9008952F923F924F925F926F927F9210
:103E80008F929F92AF92BF92CF92DF92EF92FF926A
:103E90000F931F93CF93DF9300D000D000D0CDB706
:103EA000DEB75C016B0120E030E080E0AE014F5FE7
:103EB0005F4F4A01F501ED5DFE4FFE83ED83150175
:103EC000FFED2F1AFEEF3F0A25014BED441A4EEF8E
:103ED000540A350158ED651A5EEF750AF601E20FD6
:103EE000F31F0081002309F486C0811184C0790189
:103EF0009FEFE91AF90A0F3F09F059C0D601AE0D3C
:103F0000BF1D9C91790142E0E40EF11C9130C9F093
:103F100038F0923041F19330B9F18CEF9701DECF58
:103F2000D601AE0DBF1D9C91790154E0E50EF11C48
:103F30004381292F30E0322F2227240F311DF10138
:103F400033C0D601AE0DBF1D9C91790144E0E40E53
:103F5000F11C4381292F30E0322F2227240F311DFD
:103F6000ED81FE8121C0D601AE0DBF1D9C9179016E
:103F700044E0E40EF11C4381292F30E0322F222748
:103F8000240F311DF20110C0D601AE0DBF1D9C9152
:103F9000790144E0E40EF11C4381292F30E0322FF7
:103FA0002227240F311DF30131832083B7CF053041
:103FB00008F0B3CFF601EE0DFF1D60817901F2E04C
:103FC000EF0EF11CD601AE0DBF1DF401802F90E065
:103FD0009F0128193909281739071CF42D912193BD
:103FE000F7CFE80EF91E10E020E030E0A401C50193
:103FF0000E94912293CF26960FB6F894DEBF0FBE93
:10400000CDBFDF91CF911F910F91FF90EF90DF9087
:10401000CF90BF90AF909F908F907F906F905F9068
:104020004F903F902F900895BF92CF92DF92EF92E2
:10403000FF920F931F93CF93DF931F92CDB7DEB7FD
:104040007C016B018A01DA011D921D921D921C9266
:104050001397BE016F5F7F4F0E94F807B82E811142
:104060001FC089818823E1F0F60184899589D701F1
:104070005D962D913D914D915C919097DC010E9450
:10408000C024DC01CB0180589F4FAF4FBF4F892F19
:104090009A2FAB2FBB27F80180839183A283B38330
:1040A0008B2D0F90DF91CF911F910F91FF90EF908B
:1040B000DF90CF90BF900895CF92DF92EF92FF9262
:1040C0000F931F93CF93DF9300D000D0CDB7DEB70F
:1040D0008A01FB01C484D584E684F784FA01C08296
:1040E000D182E282F382AE014F5F5F4F0E941420C3
:1040F000811111C0F801C080D180E280F380498134
:104100005A816B817C814C0D5D1D6E1D7F1D40832E
:104110005183628373830F900F900F900F90DF9104
:10412000CF911F910F91FF90EF90DF90CF90089566
:10413000AF92BF92CF92DF92EF92FF920F931F93B5
:10414000CF93DF93CDB7DEB728970FB6F894DEBFD5
:104150000FBECDBF8C015B016A017901FC01858D29
:10416000968DA78DB0A18D839E83AF83B887AE0156
:104170004F5F5F4FC8010E945C20AE014B5F5F4FF5
:10418000B501C8010E941420B82E811134C02981C4
:104190003A814B815C81A8EEB3E00E94C024DC012F
:1041A000CB019058AF4FBF4FCD01AA27BB27065D6B
:1041B0001E4F892B8A2B8B2B79F48EEA97E8AFE878
:1041C000B2E0F60180839183A283B383F8018083F8
:1041D0009183A283B3830AC0F601108211821282F6
:1041E0001382F8011082118212821382F701108269
:1041F0001182128213828B2D28960FB6F894DEBF9F
:104200000FBECDBFDF91CF911F910F91FF90EF9027
:10421000DF90CF90BF90AF9008952F923F924F9232
:104220005F926F927F928F929F92AF92BF92CF9246
:10423000DF92EF92FF920F931F93CF93DF93CDB74F
:10424000DEB7A5970FB6F894DEBF0FBECDBF5C01F9
:1042500029A33AA34BA35CA348011A8E198E188E8A
:104260001F8A1E8A1D8A19821A821B821C82687705
:10427000262E312C93E0359427949A95E1F72B8ED6
:10428000222061F0822D8D7F11E01C8F853041F05E
:1042900084EF820D843020F01C8E02C001E00C8F70
:1042A00041E06FEFC5010E94C322811107C0AE013A
:1042B0004B5E5F4F66EBC5010E9414239D8920E091
:1042C00030E0392F330F2901612C712C811105C089
:1042D00040E06FEFC5010E94C322F501EE5CFE4F86
:1042E0004082518262827382811108C0AE01465EB3
:1042F0005F4F60E070E0C5010E94A5089A8D992388
:1043000079F18111F3C09E012F5F3F4FAE014F5EE7
:104310005F4FB701C5010E9498208111E7C08981D4
:104320009A81F70193878287AE01435F5F4F60E018
:1043300070E0C5010E941A094D855E856F857889F8
:10434000411551056105710559F001E00DA3098979
:104350001A892B893C89401751076207730708F0B7
:104360001DA2811108C0AE01485E5F4F62E070E09F
:10437000C5010E94A508988D9923C9F0811123C019
:10438000AE01475F5F4F62E070E0C5010E941A090D
:1043900049855A856B857C854115510561057105F7
:1043A00031F011E0441555056605770508F010E079
:1043B00081110AC0AE01495E5F4F63E070E0C50144
:1043C0000E94A50801C010E09F89992381F1811105
:1043D0005CC08114910481F029A13AA14BA15CA198
:1043E000942F832F722F6627940140E050E00E94A3
:1043F0006A2429013A0103C0412C512C3201AE013B
:104400004B5F5F4F63E070E0C5010E941A094D8168
:104410005E816F817885411551056105710539F01F
:1044200099249394441655066606770608F0912C55
:1044300081112CC00C8D8FEF0130D9F0820D8330AB
:1044400010F485E016C00B8D063011F0093011F420
:1044500084E00FC0622D6D7F683011F0113011F4CF
:1044600083E007C00B8D043019F021E0921204C0E4
:1044700082E0F60180830AC00DA1013021F481E0C1
:10448000F601808302C0F6011082912CF601808132
:10449000811103C0F70113861286AE01475E5F4F9C
:1044A00061E070E0C5010E94A508811121C09A8DCC
:1044B000911102C001E00DA30DA1F50103A70B8D21
:1044C00091E0043019F0298D211190E0F50194A7B5
:1044D000988D911101C011E0F50115A79F899111E7
:1044E00002C099249394F50196A602C01DA243CF61
:1044F000A5960FB6F894DEBF0FBECDBFDF91CF916A
:104500001F910F91FF90EF90DF90CF90BF90AF90F1
:104510009F908F907F906F905F904F903F902F90E3
:1045200008950F931F93CF93003411052105310592
:1045300010F0CCEF01C0C0E0FC01EF5BFE4F8081CA
:104540000E945423892B09F0CCEE8C2FCF911F9120
:104550000F9108950F931F93CF93003411052105F8
:10456000310510F0CCEF01C0C0E0FC01EF5BFE4F65
:1045700080810E948623892B09F0CCEE8C2FCF916D
:104580001F910F9108958F5B9E4FFC0180810E94C7
:10459000C023892B11F08CEE089580E008958F5B85
:1045A0009E4FFC0180810E94D723892B11F08CEE55
:1045B000089580E00895EF92FF920F931F93CF9399
:1045C000DF931F92CDB7DEB7F62EE42E122F8F5B4E
:1045D0009E4FFC010081AE014F5F5F4F802F0E9414
:1045E000F023892B11F08CEE0BC049814E21412B19
:1045F00049836F2D802F0E94C023892BA1F780E073
:104600000F90DF91CF911F910F91FF90EF90089540
:104610008F5B9E4FFC0180810E94F023892B11F05B
:104620008CEE089580E008958F5B9E4FFC018081A1
:104630000E94FB23892B11F08CEE089580E00895F1
:104640008F5B9E4FFC0180810E941F24892B11F0FB
:104650008CEE089580E00895CF93DF9300D000D0D2
:10466000CDB7DEB719821A821B821C8289819A819A
:10467000AB81BC818A3F9105A105B10568F40000BA
:1046800089819A81AB81BC810196A11DB11D89836D
:104690009A83AB83BC83EACF80E00F900F900F909A
:1046A0000F90DF91CF910895AF92BF92CF92DF929A
:1046B000EF92FF920F931F93CF93DF93F62EEA01B1
:1046C0005901880F0E9489008F2D0E94AB0068015C
:1046D0007501C114D104E104F10449F089910E94EB
:1046E000AB0081E0C81AD108E108F108F2CF0E94BE
:1046F000C60080E090E0DF91CF911F910F91FF9075
:10470000EF90DF90CF90BF90AF900895AF92BF929F
:10471000CF92DF92EF92FF920F931F93CF93DF938D
:10472000F82EE62EEA015901880F0E9489008E2D8D
:104730000E94AB000E94C6008F2D880F81600E94EE
:10474000890068017501C114D104E104F10449F044
:104750000E94BC00899381E0C81AD108E108F108E1
:10476000F2CF0E94C60080E090E0DF91CF911F91D0
:104770000F91FF90EF90DF90CF90BF90AF90089592
:104780000F931F93CF93DF931F92CDB7DEB749836B
:1047900001E010E020E030E0AE014F5F5F4F0E948B
:1047A00054230F90DF91CF911F910F9108950F9394
:1047B0001F93CF93DF9300D0CDB7DEB74A835983E1
:1047C00002E010E020E030E0AE014F5F5F4F0E945A
:1047D00054230F900F90DF91CF911F910F91089567
:1047E0000F931F9301E010E020E030E00E94862349
:1047F0001F910F910895EF92FF920F931F93CF9304
:10480000DF9300D0CDB7DEB77A0102E010E020E000
:1048100030E0AE014F5F5F4F0E94862329813A81CD
:10482000322723273227F701318320830F900F90FF
:10483000DF91CF911F910F91FF90EF900895EF922C
:10484000FF920F931F93CF93DF9300D000D0CDB78B
:10485000DEB77A0104E010E020E030E0AE014F5F07
:104860005F4F0E94862349815A8154274527542748
:1048700060E070E0762F652F542F44272B81422B68
:10488000762F652F542F44272C81422BF70140832C
:104890005183628373830F900F900F900F90DF917D
:1048A000CF911F910F91FF90EF900895AA1BBB1B12
:1048B00051E107C0AA1FBB1FA617B70710F0A61B20
:1048C000B70B881F991F5A95A9F780959095BC0141
:1048D000CD010895A1E21A2EAA1BBB1BFD010DC03C
:1048E000AA1FBB1FEE1FFF1FA217B307E407F507A0
:1048F00020F0A21BB30BE40BF50B661F771F881F7C
:10490000991F1A9469F760957095809590959B0111
:10491000AC01BD01CF010895052E97FB1EF4009454
:104920000E94A32457FD07D00E946A2407FC03D0ED
:104930004EF40C94A32450954095309521953F4F0B
:104940004F4F5F4F089590958095709561957F4F7B
:104950008F4F9F4F0895EE0FFF1F0590F491E02DAC
:104960000994A29FB001B39FC001A39F700D811D48
:104970001124911DB29F700D811D1124911D089568
:104980000E94B124A59F900DB49F900DA49F800D0F
:10499000911D11240895FB01DC0101900D9200206E
:1049A000E1F70895A0E0B0E0E8EDF4E20C94E2272E
:1049B000AE014B5F5F4FFA0161917191AF01809140
:1049C0001407909115070E941825E2E00C94FE2729
:1049D0000F931F93CF93DF93E0911407F091150786
:1049E000238121FF1BC08C01D0E0C0E0F801819140
:1049F0008F016091140770911507DB011896ED91F6
:104A0000FC911997882331F00995892B79F3DFEF11
:104A1000CFEFECCF8AE00995892B19F08FEF9FEF4C
:104A200002C08D2F9C2FDF91CF911F910F91089580
:104A3000ABE0B0E0EEE1F5E20C94D2276C017B0133
:104A40008A01FC0117821682838181FFCCC1CE01CD
:104A500001963C01F6019381F70193FD859193FF47
:104A600081917F01882309F4BAC1853239F493FD1D
:104A7000859193FF81917F01853229F4B60190E001
:104A80000E940F27E7CF912C212C312CFFE1F31549
:104A9000D8F08B3279F038F4803279F08332A1F497
:104AA000232D20611DC08D3261F0803369F4232DE8
:104AB000216016C0832D8260382EE32DE4603E2EE7
:104AC0002AC0F32DF8601DC037FC2DC020ED280F43
:104AD0002A3040F08E32B9F436FC81C1232D206497
:104AE000322E19C036FE06C08AE0989E200D112491
:104AF000922E11C0EAE02E9E200D1124222EF32DBD
:104B0000F0623F2E08C08C3621F4832D8068382E49
:104B100002C0883641F4F70193FD859193FF81919E
:104B20007F018111B3CF982F9F7D9554933028F446
:104B30000C5F1F4F9FE399830DC0833631F083379D
:104B400071F0833509F059C021C0F8018081898353
:104B50000E5F1F4F88248394912C530113C02801AA
:104B6000F2E04F0E511CF801A080B18036FE03C068
:104B7000692D70E002C06FEF7FEFC5010E9404272E
:104B80004C018201F32DFF773F2E16C0280122E051
:104B9000420E511CF801A080B18036FE03C0692D81
:104BA00070E002C06FEF7FEFC5010E94F9264C0153
:104BB000F32DF0683F2E820133FC1BC0822D90E064
:104BC00088169906B0F4B60180E290E00E940F27A3
:104BD0002A94F4CFF50137FC859137FE81915F016E
:104BE000B60190E00E940F2721102A9421E0821A3A
:104BF00091088114910471F7E8C0843611F0893668
:104C000041F5F80137FE07C060817181828193818F
:104C10000C5F1F4F08C060817181072E000C880B4C
:104C2000990B0E5F1F4FF32DFF763F2E97FF09C0A4
:104C300090958095709561957F4F8F4F9F4FF0684D
:104C40003F2E2AE030E0A3010E944B27882E8618D1
:104C500045C0853731F4232D2F7EB22E2AE030E077
:104C600025C0932D997FB92E8F36C1F018F4883561
:104C700079F0B5C0803719F0883721F0B0C0E92F3E
:104C8000E061BE2EB4FE0DC0FB2DF460BF2E09C046
:104C900034FE0AC0292F2660B22E06C028E030E07C
:104CA00005C020E130E002C020E132E0F801B7FEAB
:104CB00007C060817181828193810C5F1F4F06C0A4
:104CC0006081718180E090E00E5F1F4FA3010E9420
:104CD0004B27882E8618FB2DFF773F2E36FE0DC002
:104CE000232D2E7FA22E891458F434FE0BC032FCE3
:104CF00009C0832D8E7EA82E05C0B82CA32C03C01E
:104D0000B82C01C0B92CA4FE0FC0FE01E80DF11DA6
:104D10008081803321F49A2D997EA92E09C0A2FEAC
:104D200006C0B394B39404C08A2D867809F0B39476
:104D3000A3FC11C0A0FE06C0B21488F4280C922C6B
:104D40009B180EC0B21460F4B60180E290E00E949D
:104D50000F27B394F7CFB21418F42B1802C0982C75
:104D6000212CA4FE10C0B60180E390E00E940F2722
:104D7000A2FE17C0A1FC03C088E790E002C088E54E
:104D800090E0B6010CC08A2D867859F0A1FE02C0D1
:104D90008BE201C080E2A7FC8DE2B60190E00E94A8
:104DA0000F27891438F4B60180E390E00E940F27A2
:104DB0009A94F7CF8A94F301E80DF11D8081B60132
:104DC00090E00E940F278110F5CF222009F442CEF7
:104DD000B60180E290E00E940F272A94F6CFF601F8
:104DE0008681978102C08FEF9FEF2B96E2E10C94B2
:104DF000EE27FC010590615070400110D8F78095B6
:104E000090958E0F9F1F0895FC0161507040019096
:104E10000110D8F7809590958E0F9F1F08950F93DE
:104E20001F93CF93DF93FB01238121FD03C08FEFFD
:104E30009FEF2CC022FF16C0468157812481358107
:104E40004217530744F4A081B1819D012F5F3F4F6A
:104E5000318320838C93268137812F5F3F4F3783A7
:104E6000268314C08B01EC01FB010084F185E02D49
:104E70000995892BE1F6D80116968D919C9117978B
:104E8000019617969C938E931697CE01DF91CF9142
:104E90001F910F910895FA01AA27283051F120316E
:104EA00081F1E8946F936E7F6E5F7F4F8F4F9F4FBE
:104EB000AF4FB1E03ED0B4E03CD0670F781F891F00
:104EC0009A1FA11D680F791F8A1F911DA11D6A0FCE
:104ED000711D811D911DA11D20D009F468943F9181
:104EE0002AE0269F11243019305D3193DEF6CF0180
:104EF0000895462F4770405D4193B3E00FD0C9F746
:104F0000F6CF462F4F70405D4A3318F0495D31FDB2
:104F10004052419302D0A9F7EACFB4E0A695979505
:104F2000879577956795BA95C9F7009761057105DB
:104F300008959B01AC010A2E069457954795379525
:104F40002795BA95C9F7620F731F841F951FA01D7F
:104F50000895A8E1B0E042E050E00C94B6270E942A
:104F6000C427272F0C94C527DC01CB01FC01F9993C
:104F7000FECF06C0F2BDE1BDF89A319600B40D92A5
:104F800041505040B8F70895262FF999FECF1FBA27
:104F900092BD81BD20BD0FB6F894FA9AF99A0FBE62
:104FA000019608952F923F924F925F926F927F9257
:104FB0008F929F92AF92BF92CF92DF92EF92FF9229
:104FC0000F931F93CF93DF93CDB7DEB7CA1BDB0BD5
:104FD0000FB6F894DEBF0FBECDBF09942A8839887A
:104FE00048885F846E847D848C849B84AA84B98481
:104FF000C884DF80EE80FD800C811B81AA81B9818D
:10500000CE0FD11D0FB6F894DEBF0FBECDBFED01A0
:065010000895F894FFCFA3
:10501600FFFF01FF0001800101FF0101000001FF08
:1050260001014F0201FF0E01000301018401020A82
:105036000103030104080105C801060301078D01E8
:1050460008080109C6010A01010B02010C00010D45
:10505600D5010E18010F1201100101118201120073
:105066000113D50114180115130116030117860142
:10507600180A011909011A08011BC2011C03011DA6
:105086008F011E0A011F06012001012102012200D3
:105096000123D501241801252201260101278201B9
:1050A60028000129D5012A18012B0B012C28012DD6
:1050B60078012E28012F9101300001310B013200B9
:1050C60001330B0134000135A10136000137A0017F
:1050D6003800013904013A28013B30013C0C013DFE
:1050E60004013E0F013F7901402801411E01422F74
:1050F60001438701440001450B01460001470B01AE
:1051060048000149A7014A00014BA6014C00014D88
:1051160004014E01014F0001500001518001520966
:1051260001530801540101550001560F0157790139
:105136005809015905015A00015B60015C05015DD2
:10514600D1015E0C015F3C0160000161D001620B80
:1051560001630301642801651001662A01673901AC
:10516600680B016902016A28016B10016C2A016D46
:1051760061016E0C016F0001700F017179017200FF
:1051860001730B01740001750B0176000177A10113
:1051960078000179A0017A00017B0401FF040179FE
:1051A6001D017B2701960E0197FE0198030199EFD9
:1051B600019A02019B4401730701700101FF01017D
:1051C600000101FF0000000001FF0101000001FFD6
:1051D600000109000110000111000124010125FF51
:1051E60001750001FF01014E2C014800013020012C
:1051F600FF0001300901540001310401320301406E
:105206008301462501600001270001500601510077
:1052160001529601560801573001610001620001F2
:1052260064000165000166A001FF01012232014709
:10523600140149FF014A0001FF00017A0A017B00BF
:1052460001782101FF010123340142000144FF01DD
:105256004526014605014040010E0601201A01437C
:105266004001FF0001340301354401FF010131040F
:10527600014B09014C05014D0401FF0001440001E9
:1052860045200147080148280167000170040171A3
:10529600010172FE01760001770001FF01010D0197
:1052A60001FF000180010101F801FF01018E0101EA
:1052B600000101FF000180000000000A0000000557
:1052C60000000000000000050000000501016964FF
:1052D6003A202020202030782534780D0A00657881
:1052E6003A202020202030782534780D0A006C657D
:1052F6006E6774683A2025640D0A007274723A204B
:1053060020202025640D0A00646174613A20200083
:1053160030782530327820004572726F72207772AD
:105326006974696E67206D65737361676520746F54
:105336002063616E20627573210D0A0073656E64C9
:1053460020206572726F723A2025640D0A0073651B
:105356006E642064697374616E63653A2025642CFB
:10536600206572726F723A2025640D0A00476F74C9
:105376002043414E206164647265737320696E2018
:10538600454550524F4D3A20307825303478210D1E
:105396000A004261642043414E2061646472657371
:1053A6007320696E20454550524F4D2C206465662A
:1053B60061756C74696E6720746F2030782530349F
:1053C6006C78210D0A0043616E277420636F6D6D42
:1053D600756E69636174652077697468204D435002
:1053E60032353135210D0A004D43503235313520E5
:1053F6006973206163746976650D0A0043616E27DF
:105406007420636F6E6E65637420746F20564C351E
:10541600334C30582100576520726563656976659F
:10542600642061206D657373616765206174203047
:1054360078253034782C203078253034780D0A00E1
:105446006669726D776172652072657175657374D0
:065456002E2E2E2E0D008B
:00000001FF
