:100000000C945A000C9464000C9464000C946400EA
:100010000C9464000C9464000C9464000C946400D0
:100020000C9464000C9464000C9464000C946400C0
:100030000C9464000C9464000C9464000C946400B0
:100040000C9464000C9464000C9464000C946400A0
:100050000C9464000C9464000C9464000C94640090
:100060000C9464000C9464000C9464000C94640080
:100070000C9464000C9464000C9464000C94640070
:100080000C9464000C9464000C9464000C94640060
:100090000C9464000C9464000C9464000C94640050
:1000A0000C9464000C9464000C9464000C94640040
:1000B0000C94640011241FBECFEFD8E0DEBFCDBF8B
:1000C0000E9466000C94A6000C940000259A269AC3
:1000D000279A2F9A2FEF83ED90E321508040904094
:1000E000E1F700C000002F982FEF83ED90E321503F
:1000F00080409040E1F700C000002E9A2FEF83ED82
:1001000090E3215080409040E1F700C000002E981D
:100110002FEF83ED90E3215080409040E1F700C045
:1001200000002D9A2FEF83ED90E321508040904006
:10013000E1F700C000002D982FEF83ED90E32150F0
:1001400080409040E1F700C00000C3CFF894FFCF9B
:00000001FF
